{
  "contractName": "Genesis",
  "abi": [
    {
      "constant": true,
      "inputs": [],
      "name": "customers",
      "outputs": [
        {
          "name": "",
          "type": "uint256"
        }
      ],
      "payable": false,
      "stateMutability": "view",
      "type": "function"
    },
    {
      "constant": true,
      "inputs": [
        {
          "name": "",
          "type": "address"
        }
      ],
      "name": "parents",
      "outputs": [
        {
          "name": "",
          "type": "address"
        }
      ],
      "payable": false,
      "stateMutability": "view",
      "type": "function"
    },
    {
      "constant": true,
      "inputs": [],
      "name": "payment",
      "outputs": [
        {
          "name": "",
          "type": "uint256"
        }
      ],
      "payable": false,
      "stateMutability": "view",
      "type": "function"
    },
    {
      "constant": true,
      "inputs": [
        {
          "name": "",
          "type": "address"
        },
        {
          "name": "",
          "type": "uint256"
        }
      ],
      "name": "children",
      "outputs": [
        {
          "name": "",
          "type": "address"
        }
      ],
      "payable": false,
      "stateMutability": "view",
      "type": "function"
    },
    {
      "constant": true,
      "inputs": [
        {
          "name": "",
          "type": "address"
        }
      ],
      "name": "nicknames",
      "outputs": [
        {
          "name": "",
          "type": "string"
        }
      ],
      "payable": false,
      "stateMutability": "view",
      "type": "function"
    },
    {
      "constant": true,
      "inputs": [],
      "name": "genesis",
      "outputs": [
        {
          "name": "",
          "type": "address"
        }
      ],
      "payable": false,
      "stateMutability": "view",
      "type": "function"
    },
    {
      "constant": true,
      "inputs": [],
      "name": "deadLine",
      "outputs": [
        {
          "name": "",
          "type": "uint256"
        }
      ],
      "payable": false,
      "stateMutability": "view",
      "type": "function"
    },
    {
      "constant": true,
      "inputs": [],
      "name": "capital",
      "outputs": [
        {
          "name": "",
          "type": "uint256"
        }
      ],
      "payable": false,
      "stateMutability": "view",
      "type": "function"
    },
    {
      "constant": true,
      "inputs": [
        {
          "name": "",
          "type": "address"
        }
      ],
      "name": "funds",
      "outputs": [
        {
          "name": "",
          "type": "uint256"
        }
      ],
      "payable": false,
      "stateMutability": "view",
      "type": "function"
    },
    {
      "constant": true,
      "inputs": [
        {
          "name": "",
          "type": "address"
        }
      ],
      "name": "lastActivity",
      "outputs": [
        {
          "name": "",
          "type": "uint256"
        }
      ],
      "payable": false,
      "stateMutability": "view",
      "type": "function"
    },
    {
      "inputs": [
        {
          "name": "firstChild",
          "type": "address"
        }
      ],
      "payable": false,
      "stateMutability": "nonpayable",
      "type": "constructor"
    },
    {
      "anonymous": false,
      "inputs": [
        {
          "indexed": false,
          "name": "addr",
          "type": "address"
        },
        {
          "indexed": false,
          "name": "parent",
          "type": "address"
        }
      ],
      "name": "registrationEvent",
      "type": "event"
    },
    {
      "anonymous": false,
      "inputs": [
        {
          "indexed": false,
          "name": "whoDied",
          "type": "address"
        },
        {
          "indexed": false,
          "name": "whoReplaced",
          "type": "address"
        }
      ],
      "name": "dieEvent",
      "type": "event"
    },
    {
      "anonymous": false,
      "inputs": [
        {
          "indexed": false,
          "name": "addr",
          "type": "address"
        },
        {
          "indexed": false,
          "name": "amount",
          "type": "uint256"
        }
      ],
      "name": "getFundsEvent",
      "type": "event"
    },
    {
      "constant": false,
      "inputs": [
        {
          "name": "addr",
          "type": "address"
        }
      ],
      "name": "isNotRegistered",
      "outputs": [
        {
          "name": "",
          "type": "bool"
        }
      ],
      "payable": false,
      "stateMutability": "nonpayable",
      "type": "function"
    },
    {
      "constant": false,
      "inputs": [
        {
          "name": "admin",
          "type": "address"
        },
        {
          "name": "name",
          "type": "string"
        }
      ],
      "name": "registerAdmin",
      "outputs": [],
      "payable": false,
      "stateMutability": "nonpayable",
      "type": "function"
    },
    {
      "constant": false,
      "inputs": [
        {
          "name": "parent",
          "type": "address"
        },
        {
          "name": "nickname",
          "type": "string"
        }
      ],
      "name": "registration",
      "outputs": [],
      "payable": true,
      "stateMutability": "payable",
      "type": "function"
    },
    {
      "constant": false,
      "inputs": [],
      "name": "getMine",
      "outputs": [],
      "payable": false,
      "stateMutability": "nonpayable",
      "type": "function"
    },
    {
      "constant": false,
      "inputs": [],
      "name": "myAvailableFunds",
      "outputs": [
        {
          "name": "myFunds",
          "type": "uint256"
        }
      ],
      "payable": false,
      "stateMutability": "nonpayable",
      "type": "function"
    },
    {
      "constant": false,
      "inputs": [],
      "name": "getMineGenesis",
      "outputs": [],
      "payable": false,
      "stateMutability": "nonpayable",
      "type": "function"
    }
  ],
  "bytecode": "0x606060405234156200001057600080fd5b60405160208062001adb8339810160405280805190602001909190505033600760006101000a81548173ffffffffffffffffffffffffffffffffffffffff021916908373ffffffffffffffffffffffffffffffffffffffff1602179055506040805190810160405280600781526020017f47656e657369730000000000000000000000000000000000000000000000000081525060036000600760009054906101000a900473ffffffffffffffffffffffffffffffffffffffff1673ffffffffffffffffffffffffffffffffffffffff1673ffffffffffffffffffffffffffffffffffffffff16815260200190815260200160002090805190602001906200011a92919062000548565b5062000170816040805190810160405280600581526020017f46697273740000000000000000000000000000000000000000000000000000008152506200018964010000000002620006a1176401000000009004565b6006600081548092919060010191905055505062000626565b600760009054906101000a900473ffffffffffffffffffffffffffffffffffffffff1673ffffffffffffffffffffffffffffffffffffffff163373ffffffffffffffffffffffffffffffffffffffff16141515620001e657600080fd5b6200020582620004686401000000000262000d79176401000000009004565b15156200021157600080fd5b80600360008473ffffffffffffffffffffffffffffffffffffffff1673ffffffffffffffffffffffffffffffffffffffff16815260200190815260200160002090805190602001906200026692919062000548565b5033600160008473ffffffffffffffffffffffffffffffffffffffff1673ffffffffffffffffffffffffffffffffffffffff16815260200190815260200160002060006101000a81548173ffffffffffffffffffffffffffffffffffffffff021916908373ffffffffffffffffffffffffffffffffffffffff1602179055504260046000600760009054906101000a900473ffffffffffffffffffffffffffffffffffffffff1673ffffffffffffffffffffffffffffffffffffffff1673ffffffffffffffffffffffffffffffffffffffff16815260200190815260200160002081905550600080600760009054906101000a900473ffffffffffffffffffffffffffffffffffffffff1673ffffffffffffffffffffffffffffffffffffffff1673ffffffffffffffffffffffffffffffffffffffff1681526020019081526020016000208054806001018281620003bf9190620005cf565b9160005260206000209001600084909190916101000a81548173ffffffffffffffffffffffffffffffffffffffff021916908373ffffffffffffffffffffffffffffffffffffffff1602179055505060066000815480929190600101919050555042600460008473ffffffffffffffffffffffffffffffffffffffff1673ffffffffffffffffffffffffffffffffffffffff168152602001908152602001600020819055505050565b600080600160008473ffffffffffffffffffffffffffffffffffffffff1673ffffffffffffffffffffffffffffffffffffffff16815260200190815260200160002060009054906101000a900473ffffffffffffffffffffffffffffffffffffffff1673ffffffffffffffffffffffffffffffffffffffff16141515620004ee57600080fd5b60008060008473ffffffffffffffffffffffffffffffffffffffff1673ffffffffffffffffffffffffffffffffffffffff168152602001908152602001600020805490501415156200053f57600080fd5b60019050919050565b828054600181600116156101000203166002900490600052602060002090601f016020900481019282601f106200058b57805160ff1916838001178555620005bc565b82800160010185558215620005bc579182015b82811115620005bb5782518255916020019190600101906200059e565b5b509050620005cb9190620005fe565b5090565b815481835581811511620005f957818360005260206000209182019101620005f89190620005fe565b5b505050565b6200062391905b808211156200061f57600081600090555060010162000605565b5090565b90565b6114a580620006366000396000f3006060604052600436106100e6576000357c0100000000000000000000000000000000000000000000000000000000900463ffffffff16806306637876146100eb57806318b13fb21461011457806342f6487a1461018d5780634e94f499146101b657806361f6b4291461023857806379c6a1b814610261578063909151b5146102dd578063a7f0b3de1461038f578063bef3a083146103e4578063cd008f1a1461040d578063d211fd1814610422578063d8c251b51461044b578063e12849b21461049c578063e2ae93fb146104b1578063f07e96b3146104fe578063f10ce7c41461054b575b600080fd5b34156100f657600080fd5b6100fe6105bc565b6040518082815260200191505060405180910390f35b341561011f57600080fd5b61014b600480803573ffffffffffffffffffffffffffffffffffffffff169060200190919050506105c2565b604051808273ffffffffffffffffffffffffffffffffffffffff1673ffffffffffffffffffffffffffffffffffffffff16815260200191505060405180910390f35b341561019857600080fd5b6101a06105f5565b6040518082815260200191505060405180910390f35b34156101c157600080fd5b6101f6600480803573ffffffffffffffffffffffffffffffffffffffff16906020019091908035906020019091905050610601565b604051808273ffffffffffffffffffffffffffffffffffffffff1673ffffffffffffffffffffffffffffffffffffffff16815260200191505060405180910390f35b341561024357600080fd5b61024b61064f565b6040518082815260200191505060405180910390f35b341561026c57600080fd5b6102db600480803573ffffffffffffffffffffffffffffffffffffffff1690602001909190803590602001908201803590602001908080601f016020809104026020016040519081016040528093929190818152602001838380828437820191505050505050919050506106a1565b005b34156102e857600080fd5b610314600480803573ffffffffffffffffffffffffffffffffffffffff16906020019091905050610964565b6040518080602001828103825283818151815260200191508051906020019080838360005b83811015610354578082015181840152602081019050610339565b50505050905090810190601f1680156103815780820380516001836020036101000a031916815260200191505b509250505060405180910390f35b341561039a57600080fd5b6103a2610a14565b604051808273ffffffffffffffffffffffffffffffffffffffff1673ffffffffffffffffffffffffffffffffffffffff16815260200191505060405180910390f35b34156103ef57600080fd5b6103f7610a3a565b6040518082815260200191505060405180910390f35b341561041857600080fd5b610420610a41565b005b341561042d57600080fd5b610435610d73565b6040518082815260200191505060405180910390f35b341561045657600080fd5b610482600480803573ffffffffffffffffffffffffffffffffffffffff16906020019091905050610d79565b604051808215151515815260200191505060405180910390f35b34156104a757600080fd5b6104af610e57565b005b34156104bc57600080fd5b6104e8600480803573ffffffffffffffffffffffffffffffffffffffff1690602001909190505061107c565b6040518082815260200191505060405180910390f35b341561050957600080fd5b610535600480803573ffffffffffffffffffffffffffffffffffffffff16906020019091905050611094565b6040518082815260200191505060405180910390f35b6105ba600480803573ffffffffffffffffffffffffffffffffffffffff1690602001909190803590602001908201803590602001908080601f016020809104026020016040519081016040528093929190818152602001838380828437820191505050505050919050506110ac565b005b60065481565b60016020528060005260406000206000915054906101000a900473ffffffffffffffffffffffffffffffffffffffff1681565b678ac7230489e8000081565b60006020528160005260406000208181548110151561061c57fe5b90600052602060002090016000915091509054906101000a900473ffffffffffffffffffffffffffffffffffffffff1681565b600060028060003373ffffffffffffffffffffffffffffffffffffffff1673ffffffffffffffffffffffffffffffffffffffff1681526020019081526020016000205481151561069b57fe5b04905090565b600760009054906101000a900473ffffffffffffffffffffffffffffffffffffffff1673ffffffffffffffffffffffffffffffffffffffff163373ffffffffffffffffffffffffffffffffffffffff161415156106fd57600080fd5b61070682610d79565b151561071157600080fd5b80600360008473ffffffffffffffffffffffffffffffffffffffff1673ffffffffffffffffffffffffffffffffffffffff16815260200190815260200160002090805190602001906107649291906113a8565b5033600160008473ffffffffffffffffffffffffffffffffffffffff1673ffffffffffffffffffffffffffffffffffffffff16815260200190815260200160002060006101000a81548173ffffffffffffffffffffffffffffffffffffffff021916908373ffffffffffffffffffffffffffffffffffffffff1602179055504260046000600760009054906101000a900473ffffffffffffffffffffffffffffffffffffffff1673ffffffffffffffffffffffffffffffffffffffff1673ffffffffffffffffffffffffffffffffffffffff16815260200190815260200160002081905550600080600760009054906101000a900473ffffffffffffffffffffffffffffffffffffffff1673ffffffffffffffffffffffffffffffffffffffff1673ffffffffffffffffffffffffffffffffffffffff16815260200190815260200160002080548060010182816108bb9190611428565b9160005260206000209001600084909190916101000a81548173ffffffffffffffffffffffffffffffffffffffff021916908373ffffffffffffffffffffffffffffffffffffffff1602179055505060066000815480929190600101919050555042600460008473ffffffffffffffffffffffffffffffffffffffff1673ffffffffffffffffffffffffffffffffffffffff168152602001908152602001600020819055505050565b60036020528060005260406000206000915090508054600181600116156101000203166002900480601f016020809104026020016040519081016040528092919081815260200182805460018160011615610100020316600290048015610a0c5780601f106109e157610100808354040283529160200191610a0c565b820191906000526020600020905b8154815290600101906020018083116109ef57829003601f168201915b505050505081565b600760009054906101000a900473ffffffffffffffffffffffffffffffffffffffff1681565b6241eb0081565b600080600260003373ffffffffffffffffffffffffffffffffffffffff1673ffffffffffffffffffffffffffffffffffffffff16815260200190815260200160002054111515610a9057600080fd5b610a9933610d79565b151515610aa557600080fd5b600760009054906101000a900473ffffffffffffffffffffffffffffffffffffffff1673ffffffffffffffffffffffffffffffffffffffff163373ffffffffffffffffffffffffffffffffffffffff1614151515610b0257600080fd5b60028060003373ffffffffffffffffffffffffffffffffffffffff1673ffffffffffffffffffffffffffffffffffffffff16815260200190815260200160002054811515610b4c57fe5b04905080600260003373ffffffffffffffffffffffffffffffffffffffff1673ffffffffffffffffffffffffffffffffffffffff168152602001908152602001600020540360026000600160003373ffffffffffffffffffffffffffffffffffffffff1673ffffffffffffffffffffffffffffffffffffffff16815260200190815260200160002060009054906101000a900473ffffffffffffffffffffffffffffffffffffffff1673ffffffffffffffffffffffffffffffffffffffff1673ffffffffffffffffffffffffffffffffffffffff168152602001908152602001600020600082825401925050819055506000600260003373ffffffffffffffffffffffffffffffffffffffff1673ffffffffffffffffffffffffffffffffffffffff168152602001908152602001600020819055503373ffffffffffffffffffffffffffffffffffffffff166108fc829081150290604051600060405180830381858888f193505050501515610cc157600080fd5b7f6dc335d0064453dfca2e1b45d7485f0b726cb92ca03ec0ee170f77dfea231d693382604051808373ffffffffffffffffffffffffffffffffffffffff1673ffffffffffffffffffffffffffffffffffffffff1681526020018281526020019250505060405180910390a142600460003373ffffffffffffffffffffffffffffffffffffffff1673ffffffffffffffffffffffffffffffffffffffff1681526020019081526020016000208190555050565b60055481565b600080600160008473ffffffffffffffffffffffffffffffffffffffff1673ffffffffffffffffffffffffffffffffffffffff16815260200190815260200160002060009054906101000a900473ffffffffffffffffffffffffffffffffffffffff1673ffffffffffffffffffffffffffffffffffffffff16141515610dfe57600080fd5b60008060008473ffffffffffffffffffffffffffffffffffffffff1673ffffffffffffffffffffffffffffffffffffffff16815260200190815260200160002080549050141515610e4e57600080fd5b60019050919050565b6000600760009054906101000a900473ffffffffffffffffffffffffffffffffffffffff1673ffffffffffffffffffffffffffffffffffffffff163373ffffffffffffffffffffffffffffffffffffffff16141515610eb557600080fd5b6000600260003373ffffffffffffffffffffffffffffffffffffffff1673ffffffffffffffffffffffffffffffffffffffff16815260200190815260200160002054111515610f0357600080fd5b600260003373ffffffffffffffffffffffffffffffffffffffff1673ffffffffffffffffffffffffffffffffffffffff1681526020019081526020016000205490506000600260003373ffffffffffffffffffffffffffffffffffffffff1673ffffffffffffffffffffffffffffffffffffffff168152602001908152602001600020819055503373ffffffffffffffffffffffffffffffffffffffff166108fc829081150290604051600060405180830381858888f193505050501515610fca57600080fd5b7f6dc335d0064453dfca2e1b45d7485f0b726cb92ca03ec0ee170f77dfea231d693382604051808373ffffffffffffffffffffffffffffffffffffffff1673ffffffffffffffffffffffffffffffffffffffff1681526020018281526020019250505060405180910390a142600460003373ffffffffffffffffffffffffffffffffffffffff1673ffffffffffffffffffffffffffffffffffffffff1681526020019081526020016000208190555050565b60026020528060005260406000206000915090505481565b60046020528060005260406000206000915090505481565b678ac7230489e80000341415156110c257600080fd5b6110ce338383346110d2565b5050565b6110db84610d79565b1515156110e757600080fd5b81600360008673ffffffffffffffffffffffffffffffffffffffff1673ffffffffffffffffffffffffffffffffffffffff168152602001908152602001600020908051906020019061113a9291906113a8565b5082600160008673ffffffffffffffffffffffffffffffffffffffff1673ffffffffffffffffffffffffffffffffffffffff16815260200190815260200160002060006101000a81548173ffffffffffffffffffffffffffffffffffffffff021916908373ffffffffffffffffffffffffffffffffffffffff1602179055506000808473ffffffffffffffffffffffffffffffffffffffff1673ffffffffffffffffffffffffffffffffffffffff16815260200190815260200160002080548060010182816112099190611428565b9160005260206000209001600086909190916101000a81548173ffffffffffffffffffffffffffffffffffffffff021916908373ffffffffffffffffffffffffffffffffffffffff1602179055505080600260008573ffffffffffffffffffffffffffffffffffffffff1673ffffffffffffffffffffffffffffffffffffffff16815260200190815260200160002060008282540192505081905550806005600082825401925050819055506006600081548092919060010191905055507fabd857b3ba57723e16b7e8e829a05ef8869b70a77695b3ddbec3be0ab22f52ee8484604051808373ffffffffffffffffffffffffffffffffffffffff1673ffffffffffffffffffffffffffffffffffffffff1681526020018273ffffffffffffffffffffffffffffffffffffffff1673ffffffffffffffffffffffffffffffffffffffff1681526020019250505060405180910390a142600460008673ffffffffffffffffffffffffffffffffffffffff1673ffffffffffffffffffffffffffffffffffffffff1681526020019081526020016000208190555050505050565b828054600181600116156101000203166002900490600052602060002090601f016020900481019282601f106113e957805160ff1916838001178555611417565b82800160010185558215611417579182015b828111156114165782518255916020019190600101906113fb565b5b5090506114249190611454565b5090565b81548183558181151161144f5781836000526020600020918201910161144e9190611454565b5b505050565b61147691905b8082111561147257600081600090555060010161145a565b5090565b905600a165627a7a72305820390c215464acee3409748860870fc0fb3b14cb23dc8bb051c721eb5ca2b3ea7a0029",
  "source": "pragma solidity ^0.4.0;\n\n\ncontract Genesis {\n\n  event registrationEvent(address addr, address parent);\n\n  event dieEvent(address whoDied, address whoReplaced);\n\n  event getFundsEvent(address addr, uint256 amount);\n\n  uint256 public constant payment = 10 ether;\n\n\n  mapping (address => address[]) public children;\n\n  mapping (address => address) public parents;\n\n  mapping (address => uint256) public funds;\n\n  mapping (address => string) public nicknames;\n\n  mapping (address => uint256) public lastActivity;\n\n  uint256 public capital; //all enters\n\n  uint256 public customers; //count of customers\n\n  uint256 public constant deadLine = 50 days; //bring him child\n\n  address public genesis; //first element in genesis net\n\n  modifier onlyGenesis() {\n    require(msg.sender == genesis);\n    _;\n  }\n\n  modifier withFunds() {\n    //funds for me?\n    require(funds[msg.sender] > 0);\n    _;\n  }\n\n\n\n  //create first element\n  function Genesis(address firstChild) {\n\n    genesis = msg.sender;\n\n    nicknames[genesis] = 'Genesis';\n\n    registerAdmin(firstChild, 'First');\n\n    customers++;\n  }\n\n\n  function isNotRegistered(address addr) public returns (bool){\n    require(parents[addr] == 0x0);\n    require(children[addr].length == 0);\n    return true;\n  }\n\n\n  function registerAdmin(address admin, string name) onlyGenesis public {\n    require(isNotRegistered(admin));\n    nicknames[admin] = name;\n    parents[admin] = msg.sender;\n    lastActivity[genesis] = now;\n    children[genesis].push(admin);\n    //create first child\n    customers++;\n    lastActivity[admin] = now;\n  }\n\n  function registerUser(address child, address parent, string nickname, uint value) private {\n    //parent is member (and is not genesis)\n    require(!isNotRegistered(child));\n\n    nicknames[child] = nickname;\n\n    parents[child] = parent;\n\n    children[parent].push(child);\n\n    funds[parent] += value;\n\n    capital += value;\n\n    customers++;\n\n    registrationEvent(child, parent);\n\n    lastActivity[child] = now;\n  }\n\n  //user registration\n  function registration(address parent, string nickname) payable public {\n\n    //payment is equal\n    require(msg.value == payment);\n\n    registerUser(msg.sender, parent, nickname, msg.value);\n\n\n  }\n\n  //every user\n  function getMine() public withFunds {\n\n    require(!isNotRegistered(msg.sender));\n    //is not genesis\n    require(msg.sender != genesis);\n\n\n    //for me\n    uint256 mine = funds[msg.sender] / 2;\n\n    funds[parents[msg.sender]] += (funds[msg.sender] - mine);\n    funds[msg.sender] = 0;\n\n    msg.sender.transfer(mine);\n\n    getFundsEvent(msg.sender, mine);\n\n    lastActivity[msg.sender] = now;\n\n  }\n\n  function myAvailableFunds() public returns (uint256 myFunds) {\n    return funds[msg.sender] / 2;\n  }\n\n\n  function getMineGenesis() public onlyGenesis withFunds {\n\n\n    //for me\n    uint256 mine = funds[msg.sender];\n\n    funds[msg.sender] = 0;\n\n    msg.sender.transfer(mine);\n\n    getFundsEvent(msg.sender, mine);\n\n    lastActivity[msg.sender] = now;\n\n  }\n\n\n}\n\n\ncontract TransferGenesis is Genesis {\n  function transferGenesis(address newGen) public onlyGenesis {\n\n    //new genesis is not member\n    require(isNotRegistered(newGen));\n\n    for (uint i = 0; i < children[genesis].length; i++) {\n\n      children[newGen].push(children[genesis][i]);\n      parents[children[genesis][i]] = newGen;\n      children[genesis][i] = 0x0;\n\n    }\n\n    children[genesis].length = 0;\n\n    funds[newGen] = funds[genesis];\n    funds[genesis] = 0;\n\n    nicknames[newGen] = nicknames[genesis];\n    nicknames[genesis] = '';\n\n    lastActivity[newGen] = now;\n    lastActivity[genesis] = 0;\n\n    genesis = newGen;\n\n  }\n\n  function transferChildren(address child) public {\n    require(parents[child] == msg.sender);\n    require(now - lastActivity[child] > deadLine);\n    require(children[child].length > 0);\n\n    for (uint256 i = 0; i < children[child].length; i++) {\n\n      children[msg.sender].push(children[child][i]);\n      parents[children[child][i]] = msg.sender;\n      children[child][i] = 0x0;\n    }\n\n    children[child].length = 0;\n\n    parents[child] = 0x0;\n\n    funds[msg.sender] += funds[child];\n\n    funds[child] = 0;\n\n    nicknames[child] = '';\n\n    lastActivity[child] = 0;\n\n    customers--;\n\n    dieEvent(child, msg.sender);\n\n    lastActivity[msg.sender] = now;\n\n  }\n}\n",
  "sourcePath": "/Users/pandanax/dev/cryptogames/solidity/contracts/Genesis.sol",
  "compiler": {
    "name": "solc",
    "version": "0.4.19+commit.c4cbbb05.Emscripten.clang"
  },
  "schemaVersion": "1.0.1",
  "updatedAt": "2018-02-13T22:34:21.851Z"
}