{
  "contractName": "Lotery",
  "abi": [
    {
      "constant": true,
      "inputs": [],
      "name": "currentPeriod",
      "outputs": [
        {
          "name": "",
          "type": "uint256"
        }
      ],
      "payable": false,
      "stateMutability": "view",
      "type": "function"
    },
    {
      "constant": true,
      "inputs": [],
      "name": "ticketPrice",
      "outputs": [
        {
          "name": "",
          "type": "uint256"
        }
      ],
      "payable": false,
      "stateMutability": "view",
      "type": "function"
    },
    {
      "constant": true,
      "inputs": [],
      "name": "jackPotFunds",
      "outputs": [
        {
          "name": "",
          "type": "uint256"
        }
      ],
      "payable": false,
      "stateMutability": "view",
      "type": "function"
    },
    {
      "constant": true,
      "inputs": [],
      "name": "jackPotPercents",
      "outputs": [
        {
          "name": "",
          "type": "uint256"
        }
      ],
      "payable": false,
      "stateMutability": "view",
      "type": "function"
    },
    {
      "constant": true,
      "inputs": [],
      "name": "benefitPercents",
      "outputs": [
        {
          "name": "",
          "type": "uint256"
        }
      ],
      "payable": false,
      "stateMutability": "view",
      "type": "function"
    },
    {
      "constant": true,
      "inputs": [],
      "name": "benefitFunds",
      "outputs": [
        {
          "name": "",
          "type": "uint256"
        }
      ],
      "payable": false,
      "stateMutability": "view",
      "type": "function"
    },
    {
      "constant": true,
      "inputs": [],
      "name": "jackPotBestHash",
      "outputs": [
        {
          "name": "",
          "type": "bytes32"
        }
      ],
      "payable": false,
      "stateMutability": "view",
      "type": "function"
    },
    {
      "constant": true,
      "inputs": [],
      "name": "owner",
      "outputs": [
        {
          "name": "",
          "type": "address"
        }
      ],
      "payable": false,
      "stateMutability": "view",
      "type": "function"
    },
    {
      "constant": true,
      "inputs": [],
      "name": "maxTicketAmount",
      "outputs": [
        {
          "name": "",
          "type": "uint256"
        }
      ],
      "payable": false,
      "stateMutability": "view",
      "type": "function"
    },
    {
      "constant": true,
      "inputs": [
        {
          "name": "",
          "type": "uint256"
        },
        {
          "name": "",
          "type": "uint256"
        }
      ],
      "name": "tickets",
      "outputs": [
        {
          "name": "number",
          "type": "uint256"
        },
        {
          "name": "addr",
          "type": "address"
        },
        {
          "name": "hash",
          "type": "bytes32"
        }
      ],
      "payable": false,
      "stateMutability": "view",
      "type": "function"
    },
    {
      "constant": true,
      "inputs": [],
      "name": "maxPeriodDuration",
      "outputs": [
        {
          "name": "",
          "type": "uint256"
        }
      ],
      "payable": false,
      "stateMutability": "view",
      "type": "function"
    },
    {
      "constant": true,
      "inputs": [
        {
          "name": "",
          "type": "uint256"
        }
      ],
      "name": "periods",
      "outputs": [
        {
          "name": "number",
          "type": "uint256"
        },
        {
          "name": "startDate",
          "type": "uint256"
        },
        {
          "name": "winnerHash",
          "type": "bytes32"
        },
        {
          "name": "winnerAddress",
          "type": "address"
        },
        {
          "name": "raised",
          "type": "uint256"
        },
        {
          "name": "ticketAmount",
          "type": "uint256"
        },
        {
          "name": "finished",
          "type": "bool"
        },
        {
          "name": "reward",
          "type": "uint256"
        }
      ],
      "payable": false,
      "stateMutability": "view",
      "type": "function"
    },
    {
      "constant": false,
      "inputs": [
        {
          "name": "newOwner",
          "type": "address"
        }
      ],
      "name": "transferOwnership",
      "outputs": [],
      "payable": false,
      "stateMutability": "nonpayable",
      "type": "function"
    },
    {
      "inputs": [
        {
          "name": "_maxPeriodDuration",
          "type": "uint256"
        },
        {
          "name": "_ticketPrice",
          "type": "uint256"
        },
        {
          "name": "_benefitPercents",
          "type": "uint256"
        },
        {
          "name": "_maxTicketAmount",
          "type": "uint256"
        },
        {
          "name": "_hashAddr",
          "type": "address"
        },
        {
          "name": "_jackPotPercents",
          "type": "uint256"
        }
      ],
      "payable": false,
      "stateMutability": "nonpayable",
      "type": "constructor"
    },
    {
      "payable": true,
      "stateMutability": "payable",
      "type": "fallback"
    },
    {
      "anonymous": false,
      "inputs": [
        {
          "indexed": false,
          "name": "periodNumber",
          "type": "uint256"
        },
        {
          "indexed": true,
          "name": "from",
          "type": "address"
        },
        {
          "indexed": false,
          "name": "hash",
          "type": "bytes32"
        },
        {
          "indexed": false,
          "name": "when",
          "type": "uint256"
        }
      ],
      "name": "TicketSelling",
      "type": "event"
    },
    {
      "anonymous": false,
      "inputs": [
        {
          "indexed": false,
          "name": "periodNumber",
          "type": "uint256"
        },
        {
          "indexed": true,
          "name": "winnerAddr",
          "type": "address"
        },
        {
          "indexed": false,
          "name": "reward",
          "type": "uint256"
        },
        {
          "indexed": false,
          "name": "winnerHash",
          "type": "bytes32"
        },
        {
          "indexed": false,
          "name": "when",
          "type": "uint256"
        }
      ],
      "name": "PeriodFinished",
      "type": "event"
    },
    {
      "anonymous": false,
      "inputs": [
        {
          "indexed": true,
          "name": "to",
          "type": "address"
        },
        {
          "indexed": false,
          "name": "value",
          "type": "uint256"
        }
      ],
      "name": "TransferBenefit",
      "type": "event"
    },
    {
      "anonymous": false,
      "inputs": [
        {
          "indexed": false,
          "name": "periodNumber",
          "type": "uint256"
        },
        {
          "indexed": false,
          "name": "winnerAddr",
          "type": "address"
        },
        {
          "indexed": false,
          "name": "winnerHash",
          "type": "bytes32"
        },
        {
          "indexed": false,
          "name": "value",
          "type": "uint256"
        },
        {
          "indexed": false,
          "name": "when",
          "type": "uint256"
        }
      ],
      "name": "JackPot",
      "type": "event"
    },
    {
      "anonymous": false,
      "inputs": [
        {
          "indexed": true,
          "name": "previousOwner",
          "type": "address"
        },
        {
          "indexed": true,
          "name": "newOwner",
          "type": "address"
        }
      ],
      "name": "OwnershipTransferred",
      "type": "event"
    },
    {
      "constant": false,
      "inputs": [
        {
          "name": "periodNumber",
          "type": "uint256"
        },
        {
          "name": "data",
          "type": "string"
        }
      ],
      "name": "buyTicket",
      "outputs": [],
      "payable": true,
      "stateMutability": "payable",
      "type": "function"
    },
    {
      "constant": false,
      "inputs": [],
      "name": "benefit",
      "outputs": [],
      "payable": false,
      "stateMutability": "nonpayable",
      "type": "function"
    },
    {
      "constant": false,
      "inputs": [],
      "name": "finishRoundAndStartNew",
      "outputs": [],
      "payable": false,
      "stateMutability": "nonpayable",
      "type": "function"
    }
  ],
  "bytecode": "0x6060604052341561000f57600080fd5b60405160c08061150283398101604052808051906020019091908051906020019091908051906020019091908051906020019091908051906020019091908051906020019091905050336000806101000a81548173ffffffffffffffffffffffffffffffffffffffff021916908373ffffffffffffffffffffffffffffffffffffffff1602179055506000861180156100a85750600085115b80156100b45750600084115b80156100c05750603284105b80156100cc5750600083115b80156100d85750600081115b80156100e45750603281105b15156100ef57600080fd5b856002819055508460048190555083600581905550826003819055508060078190555081600b60006101000a81548173ffffffffffffffffffffffffffffffffffffffff021916908373ffffffffffffffffffffffffffffffffffffffff160217905550600b60009054906101000a900473ffffffffffffffffffffffffffffffffffffffff1673ffffffffffffffffffffffffffffffffffffffff16636d4ce63c6000604051602001526040518163ffffffff167c0100000000000000000000000000000000000000000000000000000000028152600401602060405180830381600087803b15156101e157600080fd5b6102c65a03f115156101f257600080fd5b50505060405180519050600a8160001916905550600154600d600060015481526020019081526020016000206000018190555042600d60006001548152602001908152602001600020600101819055505050505050506112ab806102576000396000f3006060604052600436106100e6576000357c0100000000000000000000000000000000000000000000000000000000900463ffffffff168063060406181461015e5780631209b1f6146101875780631821cd93146101b05780631fd2676f146101d957806325bdb73d146102025780632e5113b71461022b5780634568fb50146102405780636f53da8f1461025557806387338e981461027e5780638da5cb5b146102af5780639afb93cb14610304578063a284b6d31461035f578063a374e43f14610388578063d91789931461040a578063ea4a110414610433578063f2fde38b146104d3575b600454341415156100f657600080fd5b600354600d600060015481526020019081526020016000206005015410151561011e57600080fd5b61015c6000368080601f016020809104026020016040519081016040528093929190818152602001838380828437820191505050505050343361050c565b005b341561016957600080fd5b6101716108e5565b6040518082815260200191505060405180910390f35b341561019257600080fd5b61019a6108eb565b6040518082815260200191505060405180910390f35b34156101bb57600080fd5b6101c36108f1565b6040518082815260200191505060405180910390f35b34156101e457600080fd5b6101ec6108f7565b6040518082815260200191505060405180910390f35b341561020d57600080fd5b6102156108fd565b6040518082815260200191505060405180910390f35b341561023657600080fd5b61023e610903565b005b341561024b57600080fd5b610253610a90565b005b341561026057600080fd5b610268610aeb565b6040518082815260200191505060405180910390f35b341561028957600080fd5b610291610af1565b60405180826000191660001916815260200191505060405180910390f35b34156102ba57600080fd5b6102c2610af7565b604051808273ffffffffffffffffffffffffffffffffffffffff1673ffffffffffffffffffffffffffffffffffffffff16815260200191505060405180910390f35b61035d600480803590602001909190803590602001908201803590602001908080601f01602080910402602001604051908101604052809392919081815260200183838082843782019150505050505091905050610b1c565b005b341561036a57600080fd5b610372610b71565b6040518082815260200191505060405180910390f35b341561039357600080fd5b6103b26004808035906020019091908035906020019091905050610b77565b604051808481526020018373ffffffffffffffffffffffffffffffffffffffff1673ffffffffffffffffffffffffffffffffffffffff1681526020018260001916600019168152602001935050505060405180910390f35b341561041557600080fd5b61041d610bce565b6040518082815260200191505060405180910390f35b341561043e57600080fd5b6104546004808035906020019091905050610bd4565b6040518089815260200188815260200187600019166000191681526020018673ffffffffffffffffffffffffffffffffffffffff1673ffffffffffffffffffffffffffffffffffffffff168152602001858152602001848152602001831515151581526020018281526020019850505050505050505060405180910390f35b34156104de57600080fd5b61050a600480803573ffffffffffffffffffffffffffffffffffffffff16906020019091905050610c49565b005b6000600284600a546000604051602001526040518083805190602001908083835b602083101515610552578051825260208201915060208101905060208303925061052d565b6001836020036101000a03801982511681845116808217855250505050505090500182600019166000191681526020019250505060206040518083038160008661646e5a03f115156105a357600080fd5b5050604051805190509050600281600a5460006040516020015260405180836000191660001916815260200182600019166000191681526020019250505060206040518083038160008661646e5a03f115156105fe57600080fd5b505060405180519050600a81600019169055506000600d600060015481526020019081526020016000206005015414806106575750600d6000600154815260200190815260200160002060020154600019168160001916105b156106d55780600d60006001548152602001908152602001600020600201816000191690555081600d6000600154815260200190815260200160002060030160006101000a81548173ffffffffffffffffffffffffffffffffffffffff021916908373ffffffffffffffffffffffffffffffffffffffff1602179055505b600d6000600154815260200190815260200160002060050154600c600060015481526020019081526020016000206000600d600060015481526020019081526020016000206005015481526020019081526020016000206000018190555081600c600060015481526020019081526020016000206000600d6000600154815260200190815260200160002060050154815260200190815260200160002060010160006101000a81548173ffffffffffffffffffffffffffffffffffffffff021916908373ffffffffffffffffffffffffffffffffffffffff16021790555080600c600060015481526020019081526020016000206000600d600060015481526020019081526020016000206005015481526020019081526020016000206002018160001916905550600d600060015481526020019081526020016000206005016000815480929190600101919050555082600d60006001548152602001908152602001600020600401600082825401925050819055508173ffffffffffffffffffffffffffffffffffffffff167fb2b59d7d1401b42dd7c160990126a02b0ab0a1116fb1736bcd0be80d14a12e596001548342604051808481526020018360001916600019168152602001828152602001935050505060405180910390a2600354600d60006001548152602001908152602001600020600501541015156108df576108de610d9e565b5b50505050565b60015481565b60045481565b60085481565b60075481565b60055481565b60008060009054906101000a900473ffffffffffffffffffffffffffffffffffffffff1673ffffffffffffffffffffffffffffffffffffffff163373ffffffffffffffffffffffffffffffffffffffff1614151561096057600080fd5b600060065411151561097157600080fd5b6006543073ffffffffffffffffffffffffffffffffffffffff16310390506000809054906101000a900473ffffffffffffffffffffffffffffffffffffffff1673ffffffffffffffffffffffffffffffffffffffff166108fc6006549081150290604051600060405180830381858888f1935050505015156109f257600080fd5b60006006819055506000809054906101000a900473ffffffffffffffffffffffffffffffffffffffff1673ffffffffffffffffffffffffffffffffffffffff167f7743d65d39fe9c834651717b072dd9b69f9c4b2a21b09c2a4c306fc54a3f4e8f6006546040518082815260200191505060405180910390a2803073ffffffffffffffffffffffffffffffffffffffff1631141515610a8d57fe5b50565b6000600d6000600154815260200190815260200160002060050154111515610ab757600080fd5b42600254600d600060015481526020019081526020016000206001015401101515610ae157600080fd5b610ae9610d9e565b565b60065481565b60095481565b6000809054906101000a900473ffffffffffffffffffffffffffffffffffffffff1681565b60045434141515610b2c57600080fd5b600354600d600084815260200190815260200160002060050154101515610b5257600080fd5b60015482141515610b6257600080fd5b610b6d81343361050c565b5050565b60035481565b600c602052816000526040600020602052806000526040600020600091509150508060000154908060010160009054906101000a900473ffffffffffffffffffffffffffffffffffffffff16908060020154905083565b60025481565b600d6020528060005260406000206000915090508060000154908060010154908060020154908060030160009054906101000a900473ffffffffffffffffffffffffffffffffffffffff16908060040154908060050154908060060160009054906101000a900460ff16908060070154905088565b6000809054906101000a900473ffffffffffffffffffffffffffffffffffffffff1673ffffffffffffffffffffffffffffffffffffffff163373ffffffffffffffffffffffffffffffffffffffff16141515610ca457600080fd5b600073ffffffffffffffffffffffffffffffffffffffff168173ffffffffffffffffffffffffffffffffffffffff1614151515610ce057600080fd5b8073ffffffffffffffffffffffffffffffffffffffff166000809054906101000a900473ffffffffffffffffffffffffffffffffffffffff1673ffffffffffffffffffffffffffffffffffffffff167f8be0079c531659141344cd1fd0a4f28419497f9722a3daafe3b4186f6b6457e060405160405180910390a3806000806101000a81548173ffffffffffffffffffffffffffffffffffffffff021916908373ffffffffffffffffffffffffffffffffffffffff16021790555050565b600080600080600d6000600154815260200190815260200160002060060160009054906101000a900460ff16151515610dd657600080fd5b600354600d600060015481526020019081526020016000206005015410151515610dff57600080fd5b6064600554600d600060015481526020019081526020016000206004015402811515610e2757fe5b0493506064600754600d600060015481526020019081526020016000206004015402811515610e5257fe5b0492508284600d60006001548152602001908152602001600020600401540303915081600d6000600154815260200190815260200160002060040154036006600082825401925050819055506000600102600954600019161415610ed457600d6000600154815260200190815260200160002060020154600981600019169055505b60095460001916600d600060015481526020019081526020016000206002015460001916101561101c57600d6000600154815260200190815260200160002060020154600981600019169055506000600854111561101357600854820191507ff2d02b27b9dc1156431133ca0c585dce042c43eb678ecacd97d8a0af296d160d600154600d6000600154815260200190815260200160002060030160009054906101000a900473ffffffffffffffffffffffffffffffffffffffff16600d600060015481526020019081526020016000206002015460085442604051808681526020018573ffffffffffffffffffffffffffffffffffffffff1673ffffffffffffffffffffffffffffffffffffffff16815260200184600019166000191681526020018381526020018281526020019550505050505060405180910390a15b60006008819055505b82600860008282540192505081905550813073ffffffffffffffffffffffffffffffffffffffff1631039050600d6000600154815260200190815260200160002060030160009054906101000a900473ffffffffffffffffffffffffffffffffffffffff1673ffffffffffffffffffffffffffffffffffffffff166108fc839081150290604051600060405180830381858888f1935050505015156110c057600080fd5b81600d60006001548152602001908152602001600020600701819055506001600d6000600154815260200190815260200160002060060160006101000a81548160ff021916908315150217905550600d6000600154815260200190815260200160002060030160009054906101000a900473ffffffffffffffffffffffffffffffffffffffff1673ffffffffffffffffffffffffffffffffffffffff167f420a4e3c37885b1b5f18863c79d94bc5850f9cb4bbe435078ceed3b4d2a890d260015484600d60006001548152602001908152602001600020600201544260405180858152602001848152602001836000191660001916815260200182815260200194505050505060405180910390a26111d66111fe565b803073ffffffffffffffffffffffffffffffffffffffff16311415156111f857fe5b50505050565b600d6000600154815260200190815260200160002060060160009054906101000a900460ff16151561122f57600080fd5b600160008154809291906001019190505550600154600d600060015481526020019081526020016000206000018190555042600d60006001548152602001908152602001600020600101819055505600a165627a7a7230582010007b456dd2bf8e5cedfafda7d8ed7059dba25801238b1d843fa10db088deae0029",
  "source": "pragma solidity ^0.4.0;\n\n\nimport './Lib.sol';\nimport './Hash.sol';\n\n\ncontract Lotery is Ownable {\n\n  //event when gamer is buying a new ticket\n  event TicketSelling(uint periodNumber, address indexed from, bytes32 hash, uint when);\n\n  //event when period finished\n  event PeriodFinished(uint periodNumber, address indexed winnerAddr, uint reward, bytes32 winnerHash, uint when);\n\n  //event when any funds transferred\n  event TransferBenefit(address indexed to, uint value);\n\n  event JackPot(uint periodNumber, address winnerAddr, bytes32 winnerHash, uint value, uint when);\n\n\n//current period of the game\n  uint public currentPeriod;\n\n  //if maxTicketAmount is not rised and maxPeriodDuration from period start is gone everyone can finish current round\n  uint public maxPeriodDuration;\n\n  uint public maxTicketAmount;\n\n  //ticket price in this contract\n  uint public ticketPrice;\n\n  //part for owner\n  uint public benefitPercents;\n\n  //funds for owner\n  uint public benefitFunds;\n\n  //jackPot percents\n  uint public jackPotPercents;\n\n  uint public jackPotFunds;\n\n  bytes32 public jackPotBestHash;\n\n\n  //base game hash from other contract Hash\n  bytes32 private baseHash;\n\n  Hash private hashGenerator;\n\n  //period struct\n  struct period {\n  uint number;\n  uint startDate;\n  bytes32 winnerHash;\n  address winnerAddress;\n  uint raised;\n  uint ticketAmount;\n  bool finished;\n  uint reward;\n  }\n\n  //ticket struct\n  struct ticket {\n  uint number;\n  address addr;\n  bytes32 hash;\n  }\n\n\n  //ticket store\n  mapping (uint => mapping (uint => ticket)) public tickets;\n\n  //periods store\n  mapping (uint => period) public periods;\n\n\n  function Lotery(uint _maxPeriodDuration, uint _ticketPrice, uint _benefitPercents, uint _maxTicketAmount, address _hashAddr, uint _jackPotPercents) public {\n\n    require(_maxPeriodDuration > 0 && _ticketPrice > 0 && _benefitPercents > 0 && _benefitPercents < 50 && _maxTicketAmount > 0 && _jackPotPercents > 0 && _jackPotPercents < 50);\n    //set data in constructor\n    maxPeriodDuration = _maxPeriodDuration;\n    ticketPrice = _ticketPrice;\n    benefitPercents = _benefitPercents;\n    maxTicketAmount = _maxTicketAmount;\n    jackPotPercents = _jackPotPercents;\n\n    //get initial hash\n    hashGenerator = Hash(_hashAddr);\n    baseHash = hashGenerator.get();\n\n    //start initial period\n    periods[currentPeriod].number = currentPeriod;\n    periods[currentPeriod].startDate = now;\n\n\n  }\n\n\n\n  //start new period\n  function startNewPeriod() private {\n    //if prev period finished\n    require(periods[currentPeriod].finished);\n    //init new period\n    currentPeriod++;\n    periods[currentPeriod].number = currentPeriod;\n    periods[currentPeriod].startDate = now;\n\n  }\n\n\n\n\n\n  //buy ticket with specified round and passing string data\n  function buyTicket(uint periodNumber, string data) payable public {\n\n    //only with ticket price!\n    require(msg.value == ticketPrice);\n    //only if current ticketAmount < maxTicketAmount\n    require(periods[periodNumber].ticketAmount < maxTicketAmount);\n    //roundNumber is currentRound\n    require(periodNumber == currentPeriod);\n\n    processTicketBuying(data, msg.value, msg.sender);\n\n  }\n\n\n  //buy ticket with msg.data and currentRound when transaction happened\n  function() payable public {\n\n    //only with ticket price!\n    require(msg.value == ticketPrice);\n    //only if current ticketAmount < maxTicketAmount\n    require(periods[currentPeriod].ticketAmount < maxTicketAmount);\n\n\n    processTicketBuying(string(msg.data), msg.value, msg.sender);\n\n\n  }\n\n  function processTicketBuying(string data, uint value, address sender) private {\n\n\n    //MAIN SECRET!\n    //calc ticket hash from baseHash and user data\n    //nobody knows baseHash\n    bytes32 hash = sha256(data, baseHash);\n\n    //update base hash for next tickets\n    baseHash = sha256(hash, baseHash);\n\n    //set winner if this is a best hash in round\n    if (periods[currentPeriod].ticketAmount == 0 || (hash < periods[currentPeriod].winnerHash)) {\n      periods[currentPeriod].winnerHash = hash;\n      periods[currentPeriod].winnerAddress = sender;\n    }\n\n    //update tickets store\n    tickets[currentPeriod][periods[currentPeriod].ticketAmount].number = periods[currentPeriod].ticketAmount;\n    tickets[currentPeriod][periods[currentPeriod].ticketAmount].addr = sender;\n    tickets[currentPeriod][periods[currentPeriod].ticketAmount].hash = hash;\n\n\n    //update periods store\n    periods[currentPeriod].ticketAmount++;\n    periods[currentPeriod].raised += value;\n\n    //call events\n    TicketSelling(currentPeriod, sender, hash, now);\n\n    //automatically finish and start new round if max ticket amount is raised\n    if (periods[currentPeriod].ticketAmount >= maxTicketAmount) {\n      finishRound();\n    }\n\n  }\n\n\n  //finish round\n  function finishRound() private {\n\n    //only if not finished yet\n    require(!periods[currentPeriod].finished);\n    //only if ticketAmount >= maxTicketAmount\n    require(periods[currentPeriod].ticketAmount >= maxTicketAmount);\n\n\n    //calc reward for current winner with minus %\n\n    uint fee = ((periods[currentPeriod].raised * benefitPercents) / 100);\n    uint jack = ((periods[currentPeriod].raised * jackPotPercents) / 100);\n\n\n    uint winnerReward = periods[currentPeriod].raised - fee - jack;\n\n    //calc owner benefit\n    benefitFunds += periods[currentPeriod].raised - winnerReward;\n\n\n    //if first time\n    if (jackPotBestHash == 0x0) {\n      jackPotBestHash = periods[currentPeriod].winnerHash;\n    }\n    //all other times\n    if (periods[currentPeriod].winnerHash < jackPotBestHash) {\n\n      jackPotBestHash = periods[currentPeriod].winnerHash;\n\n\n      if (jackPotFunds > 0) {\n        winnerReward += jackPotFunds;\n        JackPot(currentPeriod, periods[currentPeriod].winnerAddress, periods[currentPeriod].winnerHash, jackPotFunds, now);\n\n      }\n\n      jackPotFunds = 0;\n\n    }\n\n    //move jack to next round\n    jackPotFunds += jack;\n\n    //calc expected balance\n    uint plannedBalance = this.balance - winnerReward;\n\n    //send ether to winner\n    periods[currentPeriod].winnerAddress.transfer(winnerReward);\n\n    //update period data\n    periods[currentPeriod].reward = winnerReward;\n    periods[currentPeriod].finished = true;\n\n    //call events\n    PeriodFinished(currentPeriod, periods[currentPeriod].winnerAddress, winnerReward, periods[currentPeriod].winnerHash, now);\n\n    //automatically start new period\n    startNewPeriod();\n\n    //check balance\n    assert(this.balance == plannedBalance);\n  }\n\n  //benefit for owner\n  function benefit() public onlyOwner {\n    require(benefitFunds > 0);\n\n    uint plannedBalance = this.balance - benefitFunds;\n    owner.transfer(benefitFunds);\n    benefitFunds = 0;\n\n    TransferBenefit(owner, benefitFunds);\n    assert(this.balance == plannedBalance);\n  }\n\n  //manually finish and restart round\n  function finishRoundAndStartNew() public {\n    //only if round has tickets\n    require(periods[currentPeriod].ticketAmount > 0);\n    //only if date is expired\n    require(periods[currentPeriod].startDate + maxPeriodDuration < now);\n    //restart round\n    finishRound();\n  }\n\n\n}\n",
  "sourcePath": "/Users/pandanax/dev/cryptogames/solidity/contracts/LoteryJack.sol",
  "compiler": {
    "name": "solc",
    "version": "0.4.19+commit.c4cbbb05.Emscripten.clang"
  },
  "schemaVersion": "1.0.1",
  "updatedAt": "2018-03-02T13:59:47.372Z"
}